:100000000C942A000C9434000C9434000C943400AA
:100010000C9434000C9434000C9434000C94340090
:100020000C9434000C9434000C9434000C94340080
:100030000C9434000C9434000C9434000C94340070
:100040000C9434000C9434000C9434000C94340060
:100050000C94340011241FBECFE5D8E0DEBFCDBF25
:100060000E9450040C9467040C940000DF93CF931B
:10007000CDB7DEB727970FB6F894DEBF0FBECDBF62
:1000800089836A834B838B81813009F06FC08981BA
:10009000282F30E03F832E838E819F818130910510
:1000A00049F12E813F81223031052CF48E819F81D0
:1000B000009761F0D2C02E813F812230310571F16D
:1000C0008E819F8183309105E9F1C7C0AAE3B0E03A
:1000D000EAE3F0E08081482F8A81282F30E081E038
:1000E00090E0022E02C0880F991F0A94E2F7842B39
:1000F0008C93B3C0A7E3B0E0E7E3F0E08081482F42
:100100008A81282F30E081E090E0022E02C0880F23
:10011000991F0A94E2F7842B8C939FC0A4E3B0E06C
:10012000E4E3F0E08081482F8A81282F30E081E0ED
:1001300090E0022E02C0880F991F0A94E2F7842BE8
:100140008C938BC0A1E3B0E0E1E3F0E08081482F25
:100150008A81282F30E081E090E0022E02C0880FD3
:10016000991F0A94E2F7842B8C9377C08B818823A4
:1001700009F073C08981282F30E03D832C838C8166
:100180009D818130910559F12C813D8122303105CD
:100190002CF48C819D81009769F05FC02C813D819A
:1001A0002230310589F18C819D818330910509F4DC
:1001B00040C053C0AAE3B0E0EAE3F0E08081482FFA
:1001C0008A81282F30E081E090E0022E02C0880F63
:1001D000991F0A94E2F7809584238C933EC0A7E38D
:1001E000B0E0E7E3F0E08081482F8A81282F30E0FB
:1001F00081E090E0022E02C0880F991F0A94E2F776
:10020000809584238C9329C0A4E3B0E0E4E3F0E07C
:100210008081482F8A81282F30E081E090E0022EF3
:1002200002C0880F991F0A94E2F7809584238C936B
:1002300014C0A1E3B0E0E1E3F0E08081482F8A81BF
:10024000282F30E081E090E0022E02C0880F991F35
:100250000A94E2F7809584238C9327960FB6F8943E
:10026000DEBF0FBECDBFCF91DF910895DF93CF9357
:10027000CDB7DEB727970FB6F894DEBF0FBECDBF60
:1002800089836A834B838B81813009F06FC08981B8
:10029000282F30E03F832E838E819F81813091050E
:1002A00049F12E813F81223031052CF48E819F81CE
:1002B000009761F0D2C02E813F812230310571F16B
:1002C0008E819F8183309105E9F1C7C0ABE3B0E037
:1002D000EBE3F0E08081482F8A81282F30E081E035
:1002E00090E0022E02C0880F991F0A94E2F7842B37
:1002F0008C93B3C0A8E3B0E0E8E3F0E08081482F3E
:100300008A81282F30E081E090E0022E02C0880F21
:10031000991F0A94E2F7842B8C939FC0A5E3B0E069
:10032000E5E3F0E08081482F8A81282F30E081E0EA
:1003300090E0022E02C0880F991F0A94E2F7842BE6
:100340008C938BC0A2E3B0E0E2E3F0E08081482F21
:100350008A81282F30E081E090E0022E02C0880FD1
:10036000991F0A94E2F7842B8C9377C08B818823A2
:1003700009F073C08981282F30E03D832C838C8164
:100380009D818130910559F12C813D8122303105CB
:100390002CF48C819D81009769F05FC02C813D8198
:1003A0002230310589F18C819D818330910509F4DA
:1003B00040C053C0ABE3B0E0EBE3F0E08081482FF6
:1003C0008A81282F30E081E090E0022E02C0880F61
:1003D000991F0A94E2F7809584238C933EC0A8E38A
:1003E000B0E0E8E3F0E08081482F8A81282F30E0F8
:1003F00081E090E0022E02C0880F991F0A94E2F774
:10040000809584238C9329C0A5E3B0E0E5E3F0E078
:100410008081482F8A81282F30E081E090E0022EF1
:1004200002C0880F991F0A94E2F7809584238C9369
:1004300014C0A2E3B0E0E2E3F0E08081482F8A81BB
:10044000282F30E081E090E0022E02C0880F991F33
:100450000A94E2F7809584238C9327960FB6F8943C
:10046000DEBF0FBECDBFCF91DF910895DF93CF9355
:1004700000D000D000D0CDB7DEB789836A838981F0
:10048000282F30E03D832C834C815D814130510524
:1004900049F18C819D818230910534F42C813D811C
:1004A0002115310561F057C04C815D814230510505
:1004B00061F18C819D8183309105D1F14CC0E9E3DC
:1004C000F0E08081282F30E08A81882F90E0A90118
:1004D00002C0559547958A95E2F7CA01582F517089
:1004E0005B833AC0E6E3F0E08081282F30E08A8128
:1004F000882F90E0A90102C0559547958A95E2F7AB
:10050000CA01582F51705B8327C0E3E3F0E080817C
:10051000282F30E08A81882F90E0A90102C05595EC
:1005200047958A95E2F7CA01582F51705B8314C032
:10053000E0E3F0E08081282F30E08A81882F90E08E
:10054000A90102C0559547958A95E2F7CA01582F2F
:1005500051705B8301C002C08B818E838E81269691
:100560000FB6F894DEBF0FBECDBFCF91DF910895D7
:10057000DF93CF9300D000D000D0CDB7DEB7898312
:100580006A838A81813099F58981282F30E03E8302
:100590002D838D819E8181309105D1F02D813E8109
:1005A000223031052CF48D819E81009761F050C07E
:1005B0002D813E812230310581F08D819E818330F5
:1005C000910581F045C0EAE3F0E08FEF808340C001
:1005D000E7E3F0E08FEF80833BC0E4E3F0E08FEFF0
:1005E000808336C0E1E3F0E08FEF808331C08A8101
:1005F000882371F58981282F30E03C832B838B8100
:100600009C8181309105C9F02B813C8122303105DC
:100610002CF48B819C81009761F01AC02B813C8166
:100620002230310571F08B819C818330910569F016
:100630000FC0EAE3F0E010820BC0E7E3F0E01082C5
:1006400007C0E4E3F0E0108203C0E1E3F0E01082D1
:1006500026960FB6F894DEBF0FBECDBFCF91DF91C7
:100660000895DF93CF9300D000D0CDB7DEB7898354
:100670006A838981282F30E03C832B838B819C8186
:1006800081309105D1F02B813C81223031052CF451
:100690008B819C81009761F01EC02B813C812230B0
:1006A000310581F08B819C818330910581F013C0ED
:1006B000EBE3F0E08A8180830EC0E8E3F0E08A811A
:1006C000808309C0E5E3F0E08A81808304C0E2E32F
:1006D000F0E08A8180830F900F900F900F90CF9160
:1006E000DF910895DF93CF9300D000D00F92CDB764
:1006F000DEB789838981282F30E03C832B838B816F
:100700009C8181309105D1F02B813C8122303105D3
:100710002CF48B819C81009761F01FC02B813C8160
:100720002230310581F08B819C818330910581F0ED
:1007300014C0E9E3F0E090819A8310C0E6E3F0E0B2
:1007400020812A830BC0E3E3F0E030813A8306C0C6
:10075000E0E3F0E080818A8301C002C09A819D833A
:100760008D810F900F900F900F900F90CF91DF9190
:100770000895DF93CF93CDB7DEB7AFE5B0E0EFE5F7
:10078000F0E0808180688C93CF91DF910895DF93B2
:10079000CF93CDB7DEB7AFE5B0E0EFE5F0E0808115
:1007A0008F778C93CF91DF910895DF93CF93CDB75F
:1007B000DEB7A3E5B0E0E3E5F0E0808188608C93EC
:1007C000A3E5B0E0E3E5F0E080818F7B8C93ECE57E
:1007D000F0E08AEF8083A9E5B0E0E9E5F0E0808110
:1007E00082608C93A3E5B0E0E3E5F0E08081816076
:1007F0008C93A3E5B0E0E3E5F0E0808182608C9328
:10080000A3E5B0E0E3E5F0E080818B7F8C93CF91AE
:10081000DF910895DF93CF93CDB7DEB7A3E5B0E0C6
:10082000E3E5F0E0808188608C93A3E5B0E0E3E548
:10083000F0E0808180648C93A3E5B0E0E3E5F0E034
:1008400080818F7E8C93A3E5B0E0E3E5F0E08081CA
:1008500080628C93A3E5B0E0E3E5F0E08081816005
:100860008C93A3E5B0E0E3E5F0E0808182608C93B7
:10087000A3E5B0E0E3E5F0E080818B7F8C93CF913E
:10088000DF910895DF93CF930F92CDB7DEB78983C1
:10089000ECE5F0E0898180830F90CF91DF9108959E
:1008A000DF93CF930F92CDB7DEB781E063E041E0F5
:1008B0000E9436000E940A0486E2898389810E9490
:1008C000420481E063E041E00E943601FFCFF894EA
:0208D000FFCF58
:00000001FF
